:020000040800F2
:10000000005000208D6F0008D56F0008D56F0008E4
:10001000D56F0008D56F0008D56F000800000000FC
:10002000000000000000000000000000D56F000884
:10003000D56F000800000000D56F0008BB61000804
:10004000D56F0008D56F0008D56F0008D56F000880
:10005000D56F0008D56F00081D6E0008236E0008DC
:10006000296E00082F6E0008356E0008D56F000855
:10007000D56F0008D56F0008D56F0008D56F000850
:10008000D56F0008D56F0008D56F0008D56F000840
:10009000D56F0008D56F0008D56F00083B6E0008CB
:1000A000D56F000819770008D56F00082D77000874
:1000B000317700084577000859770008D56F0008A8
:1000C000D56F0008D56F0008D56F0008D56F000800
:1000D000D56F00085D6B0008756B00088D6B00081C
:1000E000516E0008E9660008D56F000800000000A6
:1000F0000000000000000000000000000000000000
:0C01000000000000000000005FF808F1A3
:10010C00034613F8012B002AFBD1181A013870474B
:10011C0081F0004102E000BF83F0004330B54FEAAC
:10012C0041044FEA430594EA050F08BF90EA020F19
:10013C001FBF54EA000C55EA020C7FEA645C7FEAAC
:10014C00655C00F0E2804FEA5454D4EB5555B8BFCF
:10015C006D420CDD2C4480EA020281EA030382EA40
:10016C00000083EA010180EA020281EA0303362DD2
:10017C0088BF30BD11F0004F4FEA01314FF4801CA5
:10018C004CEA113102D0404261EB410113F0004FB7
:10019C004FEA03334CEA133302D0524263EB43036E
:1001AC0094EA050F00F0A780A4F10104D5F1200E0C
:1001BC000DDB02FA0EFC22FA05F2801841F1000167
:1001CC0003FA0EF2801843FA05F359410EE0A5F13B
:1001DC0020050EF1200E012A03FA0EFC28BF4CF06C
:1001EC00020C43FA05F3C01851EBE37101F0004522
:1001FC0007D54FF0000EDCF1000C7EEB00006EEB2F
:10020C000101B1F5801F1BD3B1F5001F0CD34908B8
:10021C005FEA30004FEA3C0C04F101044FEA44520F
:10022C0012F5800F80F09A80BCF1004F08BF5FEA96
:10023C00500C50F1000041EB045141EA050130BD76
:10024C005FEA4C0C404141EB0101013C28BFB1F588
:10025C00801FE9D291F0000F04BF01460020B1FAD3
:10026C0081F308BF2033A3F10B03B3F120020CDAA6
:10027C000C3208DD02F1140CC2F10C0201FA0CF084
:10028C0021FA02F10CE002F11402D8BFC2F1200CE9
:10029C0001FA02F120FA0CFCDCBF41EA0C0190409F
:1002AC00E41AA2BF01EB0451294330BD6FEA0404E8
:1002BC001F3C1CDA0C340EDC04F11404C4F12002D3
:1002CC0020FA04F001FA02F340EA030021FA04F3E5
:1002DC0045EA030130BDC4F10C04C4F1200220FA3C
:1002EC0002F001FA04F340EA0300294630BD21FA7A
:1002FC0004F0294630BD94F0000F83F4801306BF40
:10030C0081F480110134013D4EE77FEA645C18BF33
:10031C007FEA655C29D094EA050F08BF90EA020FCA
:10032C0005D054EA000C04BF1946104630BD91EAC2
:10033C00030F1EBF0021002030BD5FEA545C05D1C5
:10034C004000494128BF41F0004130BD14F5800404
:10035C003CBF01F5801130BD01F0004545F0FE4178
:10036C0041F470014FF0000030BD7FEA645C1ABFAD
:10037C00194610467FEA655C1CBF0B46024650EAE4
:10038C00013406BF52EA033591EA030F41F4002110
:10039C0030BD00BF90F0000F04BF0021704730B596
:1003AC004FF4806404F132044FF000054FF000016B
:1003BC0050E700BF90F0000F04BF0021704730B52C
:1003CC004FF4806404F1320410F0004548BF404201
:1003DC004FF000013EE700BF42004FEAE2014FEA56
:1003EC0031014FEA02701FBF12F07F4393F07F4F31
:1003FC0081F06051704732F07F4208BF704793F034
:10040C007F4F04BF41F40021704730B54FF4607446
:10041C0001F0004521F000411CE700BF50EA010249
:10042C0008BF704730B54FF000050AE050EA0102F2
:10043C0008BF704730B511F0004502D5404261EB62
:10044C0041014FF4806404F132045FEA915C3FF4A3
:10045C00D8AE4FF003025FEADC0C18BF03325FEA40
:10046C00DC0C18BF033202EBDC02C2F1200300FAF1
:10047C0003FC20FA02F001FA03FE40EA0E0021FA16
:10048C0002F11444BDE600BF70B54FF0FF0C4CF404
:10049C00E06C1CEA11541DBF1CEA135594EA0C0FB6
:1004AC0095EA0C0F00F0DEF82C4481EA030621EAF1
:1004BC004C5123EA4C5350EA013518BF52EA03352C
:1004CC0041F4801143F4801338D0A0FB02CE4FF0DE
:1004DC000005E1FB02E506F00042E0FB03E54FF00E
:1004EC000006E1FB03569CF0000F18BF4EF0010E06
:1004FC00A4F1FF04B6F5007F64F5407404D25FEA02
:10050C004E0E6D4146EB060642EAC62141EA5551B4
:10051C004FEAC52040EA5E504FEACE2EB4F1FD0CF6
:10052C0088BFBCF5E06F1ED8BEF1004F08BF5FEA74
:10053C00500E50F1000041EB045170BD06F0004626
:10054C0046EA010140EA020081EA0301B4EB5C04D3
:10055C00C2BFD4EB0C0541EA045170BD41F48011CB
:10056C004FF0000E013C00F3AB8014F1360FDEBFF0
:10057C00002001F0004170BDC4F10004203C35DACC
:10058C000C341BDC04F11404C4F1200500FA05F34F
:10059C0020FA04F001FA05F240EA020001F00042F0
:1005AC0021F0004110EBD37021FA04F642EB060166
:1005BC005EEA430E08BF20EAD37070BDC4F10C0490
:1005CC00C4F1200500FA04F320FA05F001FA04F254
:1005DC0040EA020001F0004110EBD37041F1000140
:1005EC005EEA430E08BF20EAD37070BDC4F120054B
:1005FC0000FA05F24EEA020E20FA04F301FA05F2B3
:10060C0043EA020321FA04F001F0004121FA04F25A
:10061C0020EA020000EBD3705EEA430E08BF20EA2A
:10062C00D37070BD94F0000F0FD101F00046400064
:10063C0041EB010111F4801F08BF013CF7D041EAE6
:10064C00060195F0000F18BF704703F000465200EA
:10065C0043EB030313F4801F08BF013DF7D043EABB
:10066C000603704794EA0C0F0CEA135518BF95EA71
:10067C000C0F0CD050EA410618BF52EA4306D1D1F8
:10068C0081EA030101F000414FF0000070BD50EA17
:10069C00410606BF1046194652EA430619D094EAA1
:1006AC000C0F02D150EA013613D195EA0C0F05D18B
:1006BC0052EA03361CBF104619460AD181EA0301DF
:1006CC0001F0004141F0FE4141F470014FF0000097
:1006DC0070BD41F0FE4141F4780170BD70B54FF032
:1006EC00FF0C4CF4E06C1CEA11541DBF1CEA1355B2
:1006FC0094EA0C0F95EA0C0F00F0A7F8A4EB050494
:10070C0081EA030E52EA03354FEA013100F088808A
:10071C004FEA03334FF0805545EA131343EA126353
:10072C004FEA022245EA111545EA10654FEA002608
:10073C000EF000419D4208BF964244F1FD0404F5C1
:10074C00407402D25B084FEA3202B61A65EB03051D
:10075C005B084FEA32024FF480104FF4002CB6EBDA
:10076C00020E75EB030E22BFB61A754640EA0C005A
:10077C005B084FEA3202B6EB020E75EB030E22BF9A
:10078C00B61A754640EA5C005B084FEA3202B6EBDB
:10079C00020E75EB030E22BFB61A754640EA9C009A
:1007AC005B084FEA3202B6EB020E75EB030E22BF6A
:1007BC00B61A754640EADC0055EA060E18D04FEA28
:1007CC00051545EA16754FEA06164FEAC30343EAC8
:1007DC0052734FEAC2025FEA1C1CC0D111F4801F95
:1007EC000BD141EA00014FF000004FF0004CB6E78E
:1007FC0011F4801F04BF01430020B4F1FD0C88BF2D
:10080C00BCF5E06F3FF6AFAEB5EB030C04BFB6EB37
:10081C00020C5FEA500C50F1000041EB045170BD2A
:10082C000EF0004E4EEA113114EB5C04C2BFD4EB57
:10083C000C0541EA045170BD41F480114FF0000EDB
:10084C00013C90E645EA060E8DE60CEA135594EA57
:10085C000C0F08BF95EA0C0F3FF43BAF94EA0C0F5A
:10086C000AD150EA01347FF434AF95EA0C0F7FF4CF
:10087C0025AF104619462CE795EA0C0F06D152EA23
:10088C0003353FF4FDAE1046194622E750EA410607
:10089C0018BF52EA43067FF4C5AE50EA41047FF418
:1008AC000DAF52EA43057FF4EBAE12E74FF0FF3C7D
:1008BC0006E000BF4FF0010C02E000BF4FF0010C4E
:1008CC004DF804CD4FEA410C7FEA6C5C4FEA430CC7
:1008DC0018BF7FEA6C5C1BD001B050EA410C0CBF16
:1008EC0052EA430C91EA030F02BF90EA020F002078
:1008FC00704710F1000F91EA030F58BF994208BFDF
:10090C0090422CBFD8176FEAE37040F0010070479B
:10091C004FEA410C7FEA6C5C02D150EA013C07D1F2
:10092C004FEA430C7FEA6C5CD6D152EA033CD3D03D
:10093C005DF8040B704700BF8446104662468C4637
:10094C001946634600E000BF01B5FFF7B7FF00286A
:10095C0048BF10F1000F01BD4DF808EDFFF7F4FF93
:10096C000CBF012000205DF808FB00BF4DF808ED1E
:10097C00FFF7EAFF34BF012000205DF808FB00BF41
:10098C004DF808EDFFF7E0FF94BF012000205DF863
:10099C0008FB00BF4DF808EDFFF7CEFF94BF012018
:1009AC0000205DF808FB00BF4DF808EDFFF7C4FF11
:1009BC0034BF012000205DF808FB00BF4FEA410C5A
:1009CC007FEA6C5C02D150EA013C0AD14FEA430C3D
:1009DC007FEA6C5C02D152EA033C02D14FF000007A
:1009EC0070474FF0010070474FEA410212F50012B8
:1009FC0015D211D56FF47873B3EB625212D94FEA5A
:100A0C00C12343F0004343EA505311F0004F23FA43
:100A1C0002F018BF404270474FF00000704750EA98
:100A2C00013005D111F0004008BF6FF00040704755
:100A3C004FF00000704700BF4A0011D212F50012AF
:100A4C0011D20DD56FF47873B3EB62520ED44FEA1A
:100A5C00C12343F0004343EA505323FA02F070479A
:100A6C004FF00000704750EA013002D14FF0FF30D8
:100A7C0070474FF0000070474FEA4102B2F1E0437B
:100A8C0024BFB3F5001CDCF1FE5C0DD901F0004C69
:100A9C004FEAC0024CEA5070B2F1004F40EB8300B9
:100AAC0008BF20F00100704711F0804F21D113F1E5
:100ABC003872BCBF01F00040704741F480114FEA1E
:100ACC005252C2F11802C2F1200C10FA0CF320FAA7
:100ADC0002F018BF40F001004FEAC1234FEAD323C4
:100AEC0003FA0CFC40EA0C0023FA02F34FEA43032E
:100AFC00CCE77FEA625307D150EA01331EBF4FF0B7
:100B0C00FE4040F44000704701F0004040F0FE40D1
:100B1C0040F40000704700BF80F0004002E000BFCE
:100B2C0081F0004142001FBF5FEA410392EA030FCC
:100B3C007FEA226C7FEA236C6AD04FEA1262D2EB16
:100B4C001363C1BFD218414048404140B8BF5B421B
:100B5C00192B88BF704710F0004F40F4000020F0B4
:100B6C007F4018BF404211F0004F41F4000121F0CA
:100B7C007F4118BF494292EA030F3FD0A2F1010214
:100B8C0041FA03FC10EB0C00C3F1200301FA03F152
:100B9C0000F0004302D5494260EB4000B0F5000F75
:100BAC0013D3B0F1807F06D340084FEA310102F134
:100BBC000102FE2A51D2B1F1004F40EBC25008BFE6
:100BCC0020F0010040EA03007047490040EB0000B0
:100BDC00013A28BFB0F5000FEDD2B0FA80FCACF1B1
:100BEC00080CB2EB0C0200FA0CF0AABF00EBC250DE
:100BFC0052421843BCBFD0401843704792F0000FCC
:100C0C0081F4000106BF80F400000132013BB5E71E
:100C1C004FEA41037FEA226C18BF7FEA236C21D094
:100C2C0092EA030F04D092F0000F08BF08467047F9
:100C3C0090EA010F1CBF0020704712F07F4F04D1C7
:100C4C00400028BF40F00040704712F100723CBFDA
:100C5C0000F50000704700F0004343F0FE4040F404
:100C6C00000070477FEA226216BF08467FEA2363C2
:100C7C000146420206BF5FEA412390EA010F40F4AD
:100C8C00800070474FF0000304E000BF10F00043F9
:100C9C0048BF40425FEA000C08BF704743F09643E0
:100CAC0001464FF000001CE050EA010208BF7047FB
:100CBC004FF000030AE000BF50EA010208BF704782
:100CCC0011F0004302D5404261EB41015FEA010C97
:100CDC0002BF84460146002043F0B64308BFA3F18F
:100CEC008053A3F50003BCFA8CF2083AA3EBC25371
:100CFC0010DB01FA02FC634400FA02FCC2F1200290
:100D0C00BCF1004F20FA02F243EB020008BF20F0C6
:100D1C000100704702F1200201FA02FCC2F120022C
:100D2C0050EA4C0021FA02F243EB020008BF20EA21
:100D3C00DC7070474FF0FF0C1CEAD0521EBF1CEA4F
:100D4C00D15392EA0C0F93EA0C0F6FD01A4480EA3D
:100D5C00010C400218BF5FEA41211ED04FF0006326
:100D6C0043EA501043EA5111A0FB01310CF0004052
:100D7C00B1F5000F3EBF490041EAD3715B0040EA78
:100D8C00010062F17F02FD2A1DD8B3F1004F40EB48
:100D9C00C25008BF20F00100704790F0000F0CF01B
:100DAC00004C08BF49024CEA502040EA51207F3ADF
:100DBC00C2BFD2F1FF0340EAC250704740F40000BA
:100DCC004FF00003013A5DDC12F1190FDCBF00F0AB
:100DDC0000407047C2F10002410021FA02F1C2F159
:100DEC00200200FA02FC5FEA310040F1000053EAF5
:100DFC004C0308BF20EADC70704792F0000F00F043
:100E0C00004C02BF400010F4000F013AF9D040EA48
:100E1C000C0093F0000F01F0004C02BF490011F4DC
:100E2C00000F013BF9D041EA0C018FE70CEAD153DA
:100E3C0092EA0C0F18BF93EA0C0F0AD030F0004C5A
:100E4C0018BF31F0004CD8D180EA010000F000400E
:100E5C00704790F0000F17BF90F0004F084691F0CC
:100E6C00000F91F0004F14D092EA0C0F01D1420206
:100E7C000FD193EA0C0F03D14B0218BF084608D1CF
:100E8C0080EA010000F0004040F0FE4040F4000019
:100E9C00704740F0FE4040F4400070474FF0FF0CAC
:100EAC001CEAD0521EBF1CEAD15392EA0C0F93EAF3
:100EBC000C0F69D0A2EB030280EA010C49024FEA45
:100ECC00402037D04FF0805343EA111143EA1013FE
:100EDC000CF000408B4238BF5B0042F17D024FF4B6
:100EEC00000C8B4224BF5B1A40EA0C00B3EB510F91
:100EFC0024BFA3EB510340EA5C00B3EB910F24BF7A
:100F0C00A3EB910340EA9C00B3EBD10F24BFA3EBFE
:100F1C00D10340EADC001B0118BF5FEA1C1CE0D1C6
:100F2C00FD2A3FF650AF8B4240EBC25008BF20F079
:100F3C00010070470CF0004C4CEA50207F32C2BFCD
:100F4C00D2F1FF0340EAC250704740F400004FF06A
:100F5C000003013A37E792F0000F00F0004C02BF9B
:100F6C00400010F4000F013AF9D040EA0C0093F065
:100F7C00000F01F0004C02BF490011F4000F013BBF
:100F8C00F9D041EA0C0195E70CEAD15392EA0C0F27
:100F9C0008D142027FF47DAF93EA0C0F7FF470AF5F
:100FAC00084676E793EA0C0F04D14B023FF44CAFA2
:100FBC0008466EE730F0004C18BF31F0004CCAD137
:100FCC0030F000427FF45CAF31F000437FF43CAF73
:100FDC005FE700BF4FF0FF3C06E000BF4FF0010C95
:100FEC0002E000BF4FF0010C4DF804CD4FEA400277
:100FFC004FEA41037FEA226C18BF7FEA236C11D0C1
:10100C0001B052EA530C18BF90EA010F58BFB2EB73
:10101C00030088BFC81738BF6FEAE17018BF40F0F3
:10102C00010070477FEA226C02D15FEA402C05D1A7
:10103C007FEA236CE4D15FEA412CE1D05DF8040B2C
:10104C00704700BF844608466146FFE70FB5FFF7BF
:10105C00C9FF002848BF10F1000F0FBD4DF808ED77
:10106C00FFF7F4FF0CBF012000205DF808FB00BF68
:10107C004DF808EDFFF7EAFF34BF012000205DF8C2
:10108C0008FB00BF4DF808EDFFF7E0FF94BF01200F
:10109C0000205DF808FB00BF4DF808EDFFF7D2FF0C
:1010AC0094BF012000205DF808FB00BF4DF808ED4F
:1010BC00FFF7C8FF34BF012000205DF808FB00BF1C
:1010CC004FEA40024FEA41037FEA226C02D15FEA09
:1010DC00402C08D17FEA236C02D15FEA412C02D16B
:1010EC004FF0000070474FF0010070474FEA40028C
:1010FC00B2F1FE4F0FD34FF09E03B3EB12620DD93A
:10110C004FEA002343F0004310F0004F23FA02F0A3
:10111C0018BF404270474FF00000704712F1610F4A
:10112C0001D1420205D110F0004008BF6FF0004021
:10113C0070474FF00000704742000ED2B2F1FE4FE4
:10114C000BD34FF09E03B3EB126209D44FEA00238A
:10115C0043F0004323FA02F070474FF00000704751
:10116C0012F1610F01D1420202D14FF0FF307047F2
:10117C004FF00000704700BF10B5054C237833B911
:10118C00044B13B10448AFF300800123237010BD4E
:10119C00A800002000000000349B000808B5034B99
:1011AC001BB103490348AFF3008008BD00000000E9
:1011BC00AC000020349B00080000000008B54FF480
:1011CC0016513E4803F016F93D493C4806F08CFB9D
:1011DC000021142005F022FF0021152005F01EFF30
:1011EC000021162005F01AFF0021082005F016FF3B
:1011FC000021172005F012FF01211D2005F00EFF24
:10120C0000211D2005F058FF2E4802F038FE012168
:10121C002C4802F066FD01222A48114602F0A3FD7B
:10122C000021284802F07AFD01220321254802F012
:10123C005FFD0A21234802F05BFC1EA3D3E90023C7
:10124C00204802F0F7FC05F05DFF1F4B02221860EE
:10125C00102100231D4803F0B3F91D491B4806F06B
:10126C0029FB13211B4801F07CF918B91A491348C2
:10127C0006F03AFB012005F045FAFFF703FD174B8A
:10128C001860022005F03EFAFFF7FCFC144B1860C6
:10129C00032005F037FAFFF7F5FC124B186003201A
:1012AC0005F030FAFFF7EEFC0F4B186008BD00BFDD
:1012BC00AFF30080E1F0F0E8E80000000C2D002016
:1012CC004C9B0008942D0020B82D0020EC00002031
:1012DC005A9B0008682E0020669B0008D000002056
:1012EC00CC000020C4000020C800002037B52C4CD6
:1012FC00002302221021204603F062F9204603F05D
:10130C0027F900222046114603F03CF920462549D6
:10131C0006F0D0FA244B02251868FFF75DF800950B
:10132C000B460246204606F0DBFB00222046092134
:10133C0003F028F920461D4906F0BCFA1C4B18682E
:10134C00FFF74AF800950B460246204606F0C8FB0C
:10135C0001222046002103F015F92046154906F01C
:10136C00A9FA154B1868FFF737F800950B4602469B
:10137C00204606F0B5FB01222046082103F002F9B5
:10138C0020460E4906F096FA0D4B1868FFF724F824
:10139C00009502460B46204606F0A2FB03B030BD7A
:1013AC00EC0000207D9B0008CC2D0020809B0008C9
:1013BC00E0000020839B0008842D0020879B000800
:1013CC00C800002070B59CB013AC1723544A2046BB
:1013DC00544901F059F9544B149A5A60159A9A6071
:1013EC00169ADA601022A15C995401321D2AFAD1A6
:1013FC001B9A4D481A6201F09DF8002800F08B8072
:10140C004A4904A806F002FC494B0222196807A8B5
:10141C0006F038FC07A904A806F065FC454906F05F
:10142C006EFC0546444B022219680AA806F02AFCF9
:10143C0028460AA906F057FC404906F060FC054610
:10144C003F4B022219680DA806F01CFC28460DA97A
:10145C0006F049FC3B4906F052FC05463A4B022289
:10146C00196810A806F00EFC284610A906F03BFCE3
:10147C00364906F044FC0546354E022231682046BA
:10148C0006F000FC2146284606F02DFC014601A87A
:10149C0006F0DDFB204606F074FB10A806F071FB8D
:1014AC000DA806F06EFB0AA806F06BFB07A806F069
:1014BC0068FB04A806F065FB01A91B4806F00AFAB4
:1014CC0001A9244806F006FA174801F027F8224B28
:1014DC001868FFF731FEC1B2012005F04BF91F4B24
:1014EC001868FFF729FEC1B2022005F043F91C4B26
:1014FC001868FFF721FEC1B2032005F03BF93068F4
:10150C00FFF71AFEC1B2042005F034F901A806F069
:10151C0038FB1CB070BD13490E4806F0E5F9F8E72E
:10152C00C19B0008682E0020E82C00208B9B000833
:10153C00CC2D0020939B0008E00000209C9B000811
:10154C00E4000020A59B0008842D0020AD9B000822
:10155C00C80000200C2D0020D0000020CC00002062
:10156C00C4000020B39B0008000000002DE9F04FE0
:10157C008BB005F0C7FDBB4EBB4D3368BB4FC01ADB
:10158C00BB4B2A6818603B689A4280F2DC8005F0FD
:10159C00B9FD3368C01A632840F2D58005F0B2FD5E
:1015AC003060142005F024FDFEF7F4FE0022B14B50
:1015BC00FEF76AFF9FA3D3E90023FFF78FF89FA3E1
:1015CC00D3E90023FEF760FF0022AB4BFFF786F850
:1015DC000022AA4BFEF758FFFFF74EFADFF8B8B21D
:1015EC00DFF8B8A2CBF80000152005F001FDFEF7DE
:1015FC00D1FE00229F4BFEF747FF8EA3D3E90023B9
:10160C00FFF76CF88DA3D3E90023FEF73DFF002212
:10161C00994BFFF763F80022984BFEF735FFFFF765
:10162C002BFACAF80000162005F0E2FCFEF7B2FE19
:10163C0084A3D3E90023FEF727FF7EA3D3E900237D
:10164C00FFF74CF881A3D3E90023FEF71DFF81A31C
:10165C00D3E90023FEF760FD80A3D3E90023FFF755
:10166C003DF8FFF709FADFF83892C9F800001720A7
:10167C0005F0BEFCFEF78EFE72A3D3E90023FEF745
:10168C0003FF6CA3D3E90023FFF728F86FA3D3E97A
:10169C000023FEF7F9FE6FA3D3E90023FEF73CFD10
:1016AC006EA3D3E90023FFF719F8FFF7E5F9744BA4
:1016BC00744A18602B68064602EBC302DBF8000084
:1016CC004FEAC308CDE90223FEF786FE029AC2E96F
:1016DC0000016D4ADAF8000002EB080BFEF77CFE05
:1016EC00D9F80090694ACBE9000129F0004002EBDF
:1016FC00080AFEF771FE664ACAE9000126F00040AE
:10170C009044FEF769FE039BC8E9000101330021F8
:10171C0048462B60FFF7C0FCDFF8888100286DD0AD
:10172C0000213046FFF7B8FC002867D0D8F800300D
:10173C000133C8F80030FA2B05DD0122554B1A6035
:10174C000023C8F800303B680593059A2B68934238
:10175C00C0F2398300234E4A2B6009924B4A1D4636
:10176C000492494ADFF820910392464ADFF81CA103
:10177C009046DFF81CB10292059BAB4240F394807B
:10178C00F8E802670698FEF727FE32463B46FFF75D
:10179C00EDF820B130463946FFF76EF90690079800
:1017AC00FEF71AFEF9E8026732463B46FFF7DEF811
:1017BC0020B130463946FFF75FF907902046FAE82A
:1017CC000267FEF709FE32463B46FFF7CFF820B121
:1017DC0030463946FFF750F90446FBE80267089893
:1017EC00FEF7FAFD32463B46FFF7C0F820B1304613
:1017FC003946FFF741F908900135BDE7D8F80030BC
:10180C000021484603F1010AFFF73CFC48B10021D6
:10181C003046FFF737FC20B1C8F800A0BAF1FA0F38
:10182C008AE7BAF1FA0FC8F800A08CDD0023194A38
:10183C00136086E70000000000F88F40666666665D
:10184C0066660A409A99999999992A400000000075
:10185C0080842E4100000000DFA741410000000001
:10186C00001DF040B82D0020E800002000000020F2
:10187C00BC2D0020000026400000284000806B405A
:10188C00DC00002008170020F821002008010020AF
:10189C00F80B002004000020C42D0020C82D0020CF
:1018AC00D8000020D4000020142005F0A1FBFEF786
:1018BC0071FD0022C74BFEF7E7FDACA3D3E9002373
:1018CC00FEF70CFFABA3D3E90023FEF7DDFD0022EE
:1018DC00C14BFEF703FF0022C04BFEF7D5FDFFF70F
:1018EC00CBF8BF4EBF4D3060152005F081FBFEF7E5
:1018FC0051FD0022B74BFEF7C7FD9CA3D3E9002393
:10190C00FEF7ECFE9BA3D3E90023FEF7BDFD0022FE
:10191C00B14BFEF7E3FE0022B04BFEF7B5FDFFF72F
:10192C00ABF8B14B1860162005F062FBFEF732FDE8
:10193C0092A3D3E90023FEF7A7FD8CA3D3E90023E0
:10194C00FEF7CCFE8FA3D3E90023FEF79DFD8FA3FA
:10195C00D3E90023FEF7E0FB8EA3D3E90023FEF7C7
:10196C00BDFEFFF789F82860172005F041FBFEF754
:10197C0011FD82A3D3E90023FEF786FD7BA3D3E9F7
:10198C000023FEF7ABFE7FA3D3E90023FEF77CFD1B
:10199C007EA3D3E90023FEF7BFFB7EA3D3E900238C
:1019AC00FEF79CFEFFF768F8904B069918603068BC
:1019BC00FFF774FA06F09AFF214606462868FFF7EF
:1019CC006DFA06F093FF01463046FFF7A9F806F0D2
:1019DC0051FF0546FEF700FD70A3D3E90023FEF787
:1019EC00E3FF834E30B14FF07E512846FFF74AFBA0
:1019FC0000B135600798FEF7EFFC6AA3D3E900232A
:101A0C00FEF76CFE69A3D3E9002321F00049494697
:101A1C00FEF73AFD67A3D3E90023FEF735FD00225C
:101A2C006E4BFEF75BFE65A3D3E90023FEF756FE73
:101A3C000022704BFEF770FBFFF71EF86E4907464D
:101A4C00FFF720FB6D4D002840F0C0812F6024F083
:101A5C000040FEF7C1FC53A3D3E90023FEF73EFE82
:101A6C0058A3D3E90023FEF757FB0022644BFEF783
:101A7C0053FB21F000431946FEF7FEFF614B044671
:101A8C001860089B23F00040FEF7A6FC45A3D3E9A1
:101A9C000023FEF723FE4DA3D3E90023FEF73CFB06
:101AAC0021F000431946FEF7E7FF574BD5F80080AD
:101ABC0035681860074641462046FFF73BF9294632
:101ACC00FFF738F9514B4146186004463846FFF78A
:101ADC0031F92946FFF72EF94D4B014618604D4B55
:101AEC004D4A18684D4D01284D4B40F073811960DB
:101AFC00002320461360FFF713F8286005F000FB65
:101B0C00484CDFF82C812368474FC01AFFF7BAF80E
:101B1C00424BDFF820A11968FFF70CF94349FFF796
:101B2C00BDF9D8F80010FEF7FDFFC8F8000005F06D
:101B3C00E7FA2368DFF80091C01AFFF7A3F8334BDC
:101B4C00DFF8B8B01968FFF7F5F83849FFF7A6F9D0
:101B5C003968FEF7E7FF3860FFF7C8FBFFF732FC88
:101B6C0005F0CEFA2368274EC01A67E0000000008B
:101B7C0000F88F406666666666660A409A9999997F
:101B8C0099992A400000000080842E41000000003A
:101B9C00DFA7414100000000001DF0409A9999997F
:101BAC009999E93FCD3B7F669EA0F63F000000006F
:101BBC00006069400000000000C0694000000000A7
:101BCC0000206A40333333333333FF3FB81E85EB89
:101BDC0051B8FA3F000026400000284000806B40BE
:101BEC00C42D0020D8000020C82D0020DC000020CF
:101BFC00842D00200000044000002041CC2D00204A
:101C0C000000E03FE0000020E4000020902D0020C8
:101C1C00882D0020040000207C2D00208C2D00201D
:101C2C00802D0020C02D0020C800002000BA5B4A87
:101C3C00C4000020D0000020CC000020FFF722F8C8
:101C4C006A4B6B4D1968FFF775F86A49FFF726F96F
:101C5C00DAF80010FEF766FFCAF8000005F050FA3B
:101C6C002368C01AFFF70EF8634B1968FFF762F888
:101C7C006049FFF713F9D9F80010FEF753FFC9F8C4
:101C8C00000005F03DFA5D4920605D4805F012FE4C
:101C9C00DBF80000FEF7A0FB022402460B46584876
:101CAC00009405F022FF5749554805F003FE3068B3
:101CBC00FEF792FB009402460B46514805F015FFC7
:101CCC0051494F4805F0F6FD2868FEF785FB009456
:101CDC0002460B464A4805F008FF4C49484805F0B7
:101CEC00E9FD4B4B1868FEF777FB009402460B4658
:101CFC00434805F0FAFE4749414805F0DBFDD8F8AA
:101D0C000000FEF769FB009402460B463C4805F0C8
:101D1C00ECFE41493A4805F0CDFD3868FEF75CFB16
:101D2C00009402460B46364805F0DFFE3B4934482A
:101D3C0005F0DAFD3A4BDBF800204FF4AF711A6076
:101D4C0032685A602A689A60314A1268DA60DAF8A6
:101D5C0000201A61D9F800205A61D8F800209A6145
:101D6C003A685F46DA610022002302980139E0E804
:101D7C00022302900398E0E8022303900498E0E821
:101D8C00022304900998E0E802230990EDD14FF466
:101D9C007A74DFF88C90DFF8908020224946404618
:101DAC0001F045FF012005F0AFF9013CF5D11D49CB
:101DBC003868FFF75DF9B8B101211D2005F07CF9F9
:101DCC00002333602B600BB0BDE8F08F00232B6039
:101DDC0033603CE600287FF491AE1160002220466F
:101DEC001A60FEF79FFE88E62146E6E7802D00206C
:101DFC00E400002000BA5B4A7C2D0020CA9B00083E
:101E0C000C2D0020CF9B0008D59B0008DB9B000805
:101E1C00842D0020E39B0008ED9B0008F49B000838
:101E2C00E816002000002041942D00201FB503234C
:101E3C000222CDE9013204230A220C2100930B4823
:101E4C00052302F091FC0A4800F03EFB00231F2200
:101E5C001E21084802F046FA18221C21064B07489E
:101E6C0005B05DF804EB01F033BE00BFEC000020C0
:101E7C00E82C00200C2D002080969800942D00203A
:101E8C00014802F0FFB800BF0C2D0020232970B5CB
:101E9C0004461BD800230C2505FB03F6A65FD8B21D
:101EAC00B1420DD00133042BF6D1012A0CD1002301
:101EBC000C2505FB03F2A65ED8B2013601D1A15266
:101ECC0070BD0133042BF4D11846F9E70420F7E771
:101EDC0070B503464FF6FF72012500240B4E00F13E
:101EEC0030011A805E601D725C720C338B42F8D12B
:101EFC00074B0286998EA0F89010D98EA0F89210FC
:101F0C005B8EA0F89620A0F8943070BD00093D00BF
:101F1C00C8A00008232970B505460E4621D8012219
:101F2C00FFF7B4FF032804461BD8232E0BD0B5F9BA
:101F3C009630013307D10121304605F06FF80121AD
:101F4C00304605F0B9F80C20002300FB045485F84A
:101F5C008530627A237A616805F1340000F0DAF892
:101F6C002E8670BD82B0F8B5232906AC05460E4608
:101F7C0084E80C0029D80122FFF788FF03280446C7
:101F8C0023D80C2707FB0057079BBDF820207B604C
:101F9C009DF82230232E3A81BB720BD0B5F99630C6
:101FAC00013307D10121304605F038F801213046C4
:101FBC0005F082F80C2000FB04547968237A627ACD
:101FCC0005F1340000F0A6F82E86BDE8F84002B00A
:101FDC00704700002329F0B519D803464FF6FF745B
:101FEC00012600270A4D00F13002B3F900C00C3372
:101FFC008C4501BF23F80C4C43F8085C03F8046CC7
:10200C0003F8037C9342F0D14FF6FF730386F0BDC7
:10201C0000093D00F0B587B08DF80F200022232970
:10202C0004460D461F468DF817203FD8FFF72EFFAC
:10203C00B4F9303006469D4210D0032803D99DF8E0
:10204C00170007B0F0BD0C2101FB004104F1340076
:10205C000B7A4A7A496800F05DF82586232D07D063
:10206C00B4F99630013303D10021284605F024F849
:10207C000C2000FB0646B37A0DF1170201934FF4C6
:10208C007A730DF10F01009304F13400012300F079
:10209C0069F9232DD3D0012FD1D1B4F99630013366
:1020AC00CDD13946284605F007F8C8E71046C8E7F1
:1020BC000148FFF70DBF00BFD02D002070B50D0EED
:1020CC00445991FAA1F3B3FA83F30F269B0006FA55
:1020DC0003F324EA030491FAA1F1B1FA81F1890026
:1020EC0002FA01F12143415170BD00000346074A39
:1020FC00106853B1064A934205D002F578429342D8
:10210C0003D103F097BB03F085BB70473000002070
:10211C00003800402DE9F74F0D4617469846044607
:10212C00002800F0D0808649B0F95E0004F096FAE1
:10213C0084498146B4F95C0004F090FA82498246E5
:10214C00B4F9600004F08AFA80490646B4F96200DA
:10215C0004F084FA8346B9F1000F00F0B480BAF1B0
:10216C00000F00F0B080002E00F0AD8051464846C4
:10217C0004F09DFA59468246304604F098FA01461E
:10218C008146504604F093FAA065BAF1000F00F0B6
:10219C009A80B9F1000F00F09680002800F093802F
:1021AC00B4F9623020605A1C14BF4FF480234FF4F2
:1021BC000073A3614FF482736360FFF797FFB5EB75
:1021CC00500FC0F083800023002617F0FD0FE36151
:1021DC000CBF33460123022F636134BF3346022305
:1021EC0023610723B045E36214BF33468023B4F95F
:1021FC005E00C4E90836A660A662E660504904F0A9
:10220C000DFAB4F95C004F4904F008FAB4F9600017
:10221C004D4904F003FA2369B342B4F9603008BFA6
:10222C000225C3F3031218BF0125042A8CBF3046C4
:10223C00474903F00F0398BF51F82200454A52F862
:10224C0023100B0EC65891FAA1F2B2FA82F39A003F
:10225C000F239340334091FAA1F2B2FA82F2022D8D
:10226C004FEA820223FA02F34FEA11254DD0042BD8
:10227C0002D10822FFF722FFC26822EA050295FA72
:10228C00A5F50123B5FA85F503FA05F51543C560E7
:10229C002E49B4F9620004F0C1F923682E4A934226
:1022AC003FD12E4B9A6942F480529A619B6903F498
:1022BC0080530093009B204603F0EFFB22681368C9
:1022CC0043F04003136003B0BDE8F08FB5EB900F03
:1022DC0001D3082378E7B5EBD00F01D3102373E7B4
:1022EC00B5EB101F01D318236EE7B5EB501F01D3CC
:1022FC00202369E7B5EB901F01D3282364E7B5EBE6
:10230C00D01F2CBF302338235EE7042B02D10822C8
:10231C00FFF7D4FEC36823EA050395FAA5F5C3605D
:10232C00B6E70F4A9342C6D10C4BDA6942F48042AD
:10233C00DA61DB6903F480430193019BBBE700BFC7
:10234C00C09F0008909F0008F09F000820A0000884
:10235C001C000020489D0008003001400010024085
:10236C00003800402DE9F047DDF820800C4615467A
:10237C001E469DF824905BB1B8F1000F0BD0076896
:10238C0002F080FA82462644B44207D1002003E0D2
:10239C00B8F1000F1BD10120BDE8F087BB689A078C
:1023AC00FCD514F8013B3B73B9F1000F05D1BB68A8
:1023BC00DB07FCD5FB6805F8013BB8F1FF3FE3D028
:1023CC0002F060FAA0EB0A004045DDD3E3E70220FF
:1023DC00E2E707B503688DF8071001225B680DF181
:1023EC000701984703B05DF804FB10B50446006A7A
:1023FC0018B901230020636010BD002392B2436022
:10240C0000F034FF236A5B68002BF5D0F1E7006A1B
:10241C0008B101F003B87047006A10B1012100F057
:10242C00BDBD704707B501220DF1070100F0E8FCB6
:10243C00012814BF4FF0FF309DF8070003B05DF882
:10244C0004FB006A08B510B1FFF7ECFF08BD4FF0B4
:10245C00FF30FBE738B50546006A58B1FFF7E2FFDD
:10246C00431C044604D0286A0169013900F066FD5A
:10247C00204638BD0446FBE7F8B54FF47A7317468F
:10248C000022C0E901230F4B0546036028200C46AF
:10249C0005F04AFD286298B12346044603F1280250
:1024AC00264618685968083303C693423446F7D158
:1024BC000C22394605F1100005F086FE00232B771F
:1024CC002846F8BD209C000800224FF47A71C0E920
:1024DC00012102490262016002747047209C0008CD
:1024EC00036A0BB1186970474FF0FF307047006AF0
:1024FC0000B1C069704708B5036A014663B1FFF7C4
:10250C00F6FF02460846FFF7EBFF47F6FF73101A7B
:10251C00984228BF184608BD1846FCE710B504467B
:10252C00006A30B100F06EFD206A05F005FD002355
:10253C00236210BD006A18B1407A003818BF012020
:10254C00704738B5012204460D4601F035F90246B4
:10255C0028B929462046BDE8384001F02DB90120A4
:10256C0038BD38B590F8413004460D4613B13830BB
:10257C0000F048FD2A460121204600F0DFF908B999
:10258C00002038BD04F1100521462846FFF7D9FF7D
:10259C000028F5D0294604F1380000F009FC003879
:1025AC0018BF0120EDE700004A684260094A02604A
:1025BC000A890281CA68C2600A6902614A69426179
:1025CC000A7E0276CA69C2610A6A02624A6A426279
:1025DC00704700BF609C00082DE9F04F0024924624
:1025EC009BB0DFF8A0900746103106A8CDE91094F7
:1025FC0001930794CDF818908DF821408DF849403F
:10260C00554600F0D5FBA0460DF1400B06AE2F2130
:10261C00284605F0C4FD58B32B782F2B01D101357A
:10262C00F5E7441BE4B20C2C28BF0C2429462246A7
:10263C0002A805F0C9FD1AAB2344584603F8608C78
:10264C0000F0E0FC01233146584602AA00F076FD6A
:10265C0030B9C7E90090787238461BB0BDE8F08FEE
:10266C00304600F0CFFC334625445E469B46CEE711
:10267C00019BA5EB0A05314638461D60FFF794FF18
:10268C00EAE700BF609C0008F0B51646A1B004460E
:10269C001D4602A801ABFFF79FFF019BF718F35CE7
:1026AC004BB902A916A8FFF77FFF174A204616A9B7
:1026BC00FFF7E2FE0BE00023144A0D938DF839303E
:1026CC009DF811300C922BB92046FFF7FDFE2046E9
:1026DC0021B0F0BD2B463A4602A90CA800F02EFD05
:1026EC000028F1D002A805F0060500F08BFC062DA1
:1026FC0003D113990CA800F021FC0CA916A8FFF724
:10270C0053FF3A46D2E700BF449C0008609C000887
:10271C0002210022064B196106495A719A719A726C
:10272C001A7383F83020DA63996383F84120704779
:10273C00682E0020609C00080246012323210148DA
:10274C00FFF768BCD02D00200123FF222321014874
:10275C00FFF760BCD02D002002729DF80020416074
:10276C0082720BB9437205E0012BFBD0022BF9D01E
:10277C00032BF7D07047000008B50121007904F055
:10278C009BFC064B1A783AB100221A702321BDE843
:10279C0008400348FFF71EBC08BD00BFCC2E00202C
:1027AC00D02D002010B50D4B04461A7886B06AB9AE
:1027BC0001221A700A4A03AB07CA83E80700059A7C
:1027CC002321009207480CCBFFF7CCFB002120798A
:1027DC0006B0BDE8104004F06FBC00BFCC2E00204A
:1027EC00D02E0020D02D002038B58379044673B14B
:1027FC0040F2012523895A1CAB42228102D8FFF7F3
:10280C00A3FFF7E72046FFF7B7FF0023A37138BDFE
:10281C0070B506290D464FF0000386B005D9162277
:10282C001D464271284606B070BD0093194E002318
:10283C0003AC05292BD8DFE801F003111E21242756
:10284C00012215492046FFF787FF94E80700134B38
:10285C00012503C31A80120C3270E3E701221049E0
:10286C002046FFF779FF94E807000C4B03C31A804E
:10287C00120C3270D6E701220A49E3E701220A4919
:10288C00E0E701220949DDE701220949DAE70122E3
:10289C000849D7E7DA2E002040787D01D02E0020A1
:1028AC0000093D0080841E0040420F0020A107005B
:1028BC0090D0030048E8010038B50C4604F020FC29
:1028CC000546FFF741FFFF2806D004F019FC431B17
:1028DC00A342F6D3002038BD0120FCE7F8B504462E
:1028EC000D461746FFF780FF2046FFF75BFF4FF4BE
:1028FC0096712046FFF7E0FF45F04000FFF71CFF04
:10290C00182627FA06F0C0B2083EFFF715FF16F19D
:10291C00080FF6D185B1082D14BFFF208720FFF7D3
:10292C000BFF0025FFF710FF0306E07203D50135FE
:10293C00B5F5807FF6D1F8BD9520F0E72DE9F04193
:10294C00002686B002710673867286714671044643
:10295C00884604F0D5FB01210746207904F05EFB84
:10296C000121207904F0A8FB23214B48FFF7D2FA70
:10297C0003AD33460096494E012228464849FFF7DD
:10298C00EBFE95E80700334603C323F8022B120C29
:10299C001A7096E8070085E80700059B2321009331
:1029AC0095E80C003C48FFF7DDFA0A25FF20013DB5
:1029BC00FFF7C2FE15F0FF05F8D137482321FFF7CA
:1029CC0009FB2046FFF7EEFE002220461146FFF7DA
:1029DC0085FF01280646E0720ED004F091FBC01B67
:1029EC00B0F5FA6FF0D9012320466371FFF7C4FEEE
:1029FC00284606B0BDE8F0814FF4D5720821204678
:102A0C00FFF76CFF430716D52673002600223721EB
:102A1C002046FFF763FF324629212046FFF75EFF71
:102A2C000246E072B8B104F06BFBC01BB0F5FA6F54
:102A3C00ECD90823D8E70426FFF786FE013E16F0F2
:102A4C00FF06E072F8D1AA284FF00203CCD14FF068
:102A5C0080462373DAE7237B022B14D13A212046DC
:102A6C00FFF73CFF08B10623BEE7FFF76DFE00F051
:102A7C00C000C02804BF03232373FFF765FEFFF7D4
:102A8C0063FEFFF761FE2046FFF776FE41462046C7
:102A9C00FFF7BEFE0546ABE7D02D0020D02E002060
:102AAC0090D0030038B5044604F02AFB0546FFF726
:102ABC004BFEFF28E0720CD104F022FB431BB3F554
:102ACC00967FF4D90F2320466371FFF755FE002043
:102ADC0038BDFE2801D00D23F5E70120F8E7F8B545
:102AEC001D461344B3F5007F0446164615DC837966
:102AFC002BB103688B4202D1038993421AD9237BF1
:102B0C002160032B18BF49020A4620461121FFF70A
:102B1C00E5FE074630B1032363712046FFF72CFE18
:102B2C000020F8BD2046FFF7BDFF0028F5D001239B
:102B3C002781A3712389B34208D3069E7719B74224
:102B4C000AD0FFF701FE06F8010BF8E7FFF7FCFDD2
:102B5C00238901332381EDE723891D44A37AADB288
:102B6C00258113B1B5F5007F02D32046FFF73CFE5B
:102B7C000120D6E70BB1FFF7B2BF0120704707B5B4
:102B8C004FF4007300920022FFF7A9FF03B05DF829
:102B9C0004FB70B5144605460846FFF7CDFD661ECE
:102BAC0004F2FF1416F8010FFFF7C6FDA642F9D187
:102BBC00FF20FFF7C1FDFF20FFF7BEFDFFF7C4FDAF
:102BCC0000F01F03052BE87206D0112328466B7109
:102BDC00FFF7D2FD002070BD0120FCE7F8B51746C9
:102BEC0004461E460A4631B9122363712046FFF78C
:102BFC00C3FD00202AE0037B032B18BF4A021821D7
:102C0C00FFF76CFE054608B10423EEE73A46FE21B9
:102C1C002046FFF7BEFF0028E8D09EB14FF4167196
:102C2C002046FFF749FE08B91523DEE72A460D2199
:102C3C002046FFF753FE08B11423D6E7FFF784FDB7
:102C4C000028F9D12046FFF797FD0120F8BD38B5D3
:102C5C000546FFF7A7FDFFF777FD04462846FFF76B
:102C6C008BFDB4F1FF0018BF012038BD4FF6FF7289
:102C7C00034B1A80034A5A6001221A81704700BF25
:102C8C00D02E002000093D0010B500F10C020446C6
:102C9C000121406A00F014FD60B1236A2BB9237A3C
:102CAC00E26863F07F03226223720120237A43F0EF
:102CBC002003237210BD70B50646FFF7E5FF08B977
:102CCC00002070BD736AF5681A7C023D95405A6904
:102CDC001B7915442B449D4207D05C1E204600F006
:102CEC0037FC23460028F6D1EAE7736A01201A7CE8
:102CFC004FF4007303FA02F2F3691344F361E0E753
:102D0C0010B50446406900F0FFFB18B1237E024861
:102D1C0000EB431010BD00BFE42E00202DE9F04362
:102D2C00064620200A464B1E85B00A3103F8010FD7
:102D3C009942FBD100254FF0070816F8013B73B3FD
:102D4C002E2B06D1B8F10A0F17D008254FF00A0820
:102D5C00F3E7EC466746154C04F11009E64620688B
:102D6C0061680834AEE803004C45F446F6D13946A8
:102D7C0011F8010B18B18342FAD1002013E0A845D9
:102D8C00FBD3A3F121015D29F7D8A3F16101192926
:102D9C009CBF203BDBB2691C5355CDB2CDE71078FC
:102DAC00203818BF012005B0BDE8F083469C000810
:102DBC0038B5427A04460D460AB1002038BD91F868
:102DCC002030102B0ED1022343724B8C02625B011C
:102DDC00C36100230120C4E903336562207263617F
:102DEC002376EBE7202BE8D103234372496A00F1E9
:102DFC001C020162284600F0FDFB0028E9D1DCE74B
:102E0C002DE9F74F437A04460F46154623B94FF088
:102E1C00FF3003B0BDE8F08F037ADA07F7D5C3694A
:102E2C000269DFF8D8A09B1A9D4288BF9DB2A846C4
:102E3C00DFF8CCB0B8F1000F5CD0637A2269022BBA
:102E4C00606AC2F308064FEA522123D1406A084453
:102E5C00C6F50073227A9845D4BFC1461FFA83F990
:102E6C00530602D4B9F5007F03D1DAF80020824270
:102E7C002DD1002100F048FB0028C8D01E4B7A1E33
:102E8C001E4406EB090086422BD016F8011B02F8F3
:102E9C00011FF8E70379013B0B405FFA83F92EB968
:102EAC00B9F1000F02D152B9226AE260626AE0689D
:102EBC00117C02385269884010444844C8E7E168E4
:102ECC0004F10C0200F064FB0028EFD19FE70146EF
:102EDC004B463246DBF800000097FFF74BFE00280C
:102EEC0095D02269A8EB09084A444F4422611FFA85
:102EFC0088F89FE728B28CE7E42E00200800002019
:102F0C00E830002037B5437A0446012B09D9036910
:102F1C0001220DF10701C3F34315FFF771FF0128DF
:102F2C0001D0002005E0236903481F33236100EB27
:102F3C00451003B030BD00BFE42E0020F8B5437A35
:102F4C0004460E460BB90020F8BDC2698A42FAD37A
:102F5C00022B02D101202661F6E709B9E160F9E7FD
:102F6C00436A01691D7C4B1E05F10902751ED34095
:102F7C00D540AB4200D871B9236AE36004F10C0769
:102F8C00002DE7D03A46E168606A00F001FB013D94
:102F9C000028F5D1D7E7ED1AF0E7000070B5437AB9
:102FAC0004460E464BB390F90830002B1BDA012176
:102FBC00FFF7A6FE054600B3637A012B9CBFE369BD
:102FCC00C361236A4383C3F30F4383820C4B1B6897
:102FDC002BB100F11601183098472B8B6B82237A9A
:102FEC0003F07F0323721EB9237A23F0100323729C
:102FFC003046BDE8704000F063BA002070BD00BFE1
:10300C00DC2E002010B501210446FFF7C7FF10B1DC
:10301C0000230120637210BDF7B5437A0446012BDF
:10302C000D4603D00023184603B0F0BD027A920778
:10303C00F8D5C2698A42F5D3002AF4D00669FFF7A5
:10304C007DFF0028EED0606ACDB9216A00F090FBBC
:10305C000028E7D02562237A012163F07F03204604
:10306C00E5612372FFF79AFF0028DBD0B5422946B1
:10307C00204628BF3146FFF761FF0346D3E7E168DE
:10308C0001AA00F085FA0028CCD04FF6F873606ADC
:10309C000A4A90F820700199102F18BF13469942D4
:1030AC00D9D200F065FB0028BCD06FF07042E1680B
:1030BC00606A00F0C3FA0028CDD1B3E7F8FFFF0F28
:1030CC0038B51C4B154603EB4113DA7A044612F063
:1030DC00110F04D015F0420F01D0002038BD164A54
:1030EC0021761268598B62619A8A41EA0241216207
:1030FC00DA7A12F0180210D1DB69E36101230021A6
:10310C00637205F00F0323726B06C4E903110FD52C
:10311C002046BDE83840FFF77FBF102ADDD1606A3A
:10312C0004F11C0200F066FA0028D6D00423E6E76E
:10313C000120D3E7E42E0020080000202DE9FF47F2
:10314C000646757A0C4610461F46002D40F08580C9
:10315C0001A9FFF7E3FD002835D0A846636ADFF824
:10316C0008A17362C4E903552369E26993421DD235
:10317C002046C3F34319FFF7C5FE014618B3037885
:10318C003BB1E52B23D1B8F1000F05D04FF001086E
:10319C00EAE7B8F1000F09D1DAF8003086F8189098
:1031AC0073610B78002BF1D14FF0010807F012037B
:1031BC00122B08D1B8F1000F1AD001213046FFF7BD
:1031CC009FFD0446F8B9284604B0BDE8F0870B22F1
:1031DC0001A804F0B9FE0028C6D107F03003302B4B
:1031EC00F1D03A4649463046FFF76AFF0546EAE712
:1031FC00637A022BE7D02046FFF75DFD0028E2D072
:10320C00174C86F8188020220021204604F0D2FEAC
:10321C0001AB03CB206061601A889B782281A3727A
:10322C00104B1B688BB104F10E0104F11000984790
:10323C00238A012063822383E389E38200F040F92F
:10324C000028C0D03A46317ECDE72122A3732274E8
:10325C0008232822E3736274EAE70025B3E700BF72
:10326C00E42E0020DC2E0020080000202DE9F04F79
:10327C00437A0446012B8946174685B02ED1057A30
:10328C00A9072BD56A0721D4BA4685F01005C5F3DA
:10329C000013DFF86CB101932569BAF1000F00F04F
:1032AC008980606A0679013E06EA552616F0FF060B
:1032BC00C5F3080517D1B5B9E168002941D1236AD6
:1032CC0083B92046FFF7E0FC68B907E0C1690369E0
:1032DC009942D9D0FFF732FE0028D5D10123002026
:1032EC00636079E0E360C5F500781FFA88F8D04593
:1032FC0028BFD046626AE368117C023B52698B405E
:10330C001344B8F5007F1E442ED1DBF8003037484B
:10331C00B34208BF4FF0FF334A4608BFCBF800302A
:10332C003146019B0068FFF759FC0028D6D009F5FF
:10333C0000792369AAEB080A43441FFA8AFA23612D
:10334C00AAE703AA00F024F9002845D0636A2848AC
:10335C0093F820104FF6F873102918BF0346039A00
:10336C009A42AED2E260BEE7DDB92269E3699A42C5
:10337C0017D3012000F0A4F80028AFD01D4ACBF8D9
:10338C000060137843F0010313701B4B1D444B4634
:10339C0005EB08018D420BD013F8012B05F8012B1E
:1033AC00F8E70121304600F0AFF80028EDD195E7A1
:1033BC00C144BEE7E269237AAA4204D2E56163F014
:1033CC007F03237204E00D4A12680AB1002FF6D174
:1033DC00237A1B0703D4384605B0BDE8F08F0121D2
:1033EC002046FFF7DBFD0028F5D177E7E830002019
:1033FC00F8FFFF0FE02E0020E42E0020DC2E002032
:10340C000800002007B501228DF807100DF1070107
:10341C00FFF72CFF03B05DF804FB000070B5437A96
:10342C000546012B01D0002070BD037A9A07FAD50E
:10343C005B0712D4154B1868FFF709FC0028F2D172
:10344C002B7A13F0200411D001462846FFF7A6FD75
:10345C002B7A23F020032B72E5E7C16903698B42B9
:10346C00E8D0FFF76BFD0028E4D1DCE7084A1268CE
:10347C0012B100F00FF8D6E7286943F01003C0F33F
:10348C000800C0F500702B7280B2CDE7E830002048
:10349C00E430002010B5074C0346216839B10648CA
:1034AC00064A0068FFF79AFB10B100232360012045
:1034BC0010BD00BFE4300020E8300020E42E0020D6
:1034CC0038B50D4D04462B780BB9012009E00346A5
:1034DC000A490B480B4A09680068FFF77FFB08B9DB
:1034EC00002038BD002CF0D02046FFF7D3FF002879
:1034FC00F6D000232B70E8E7E02E00200800002017
:10350C00E8300020E42E002070B50D4E05463368DF
:10351C000C4683420ED00120FFF7D2FF08B90020E1
:10352C0070BD084B2946084A1868FFF728FB00288D
:10353C00F5D03560054B012019780C431C70EFE772
:10354C0008000020E8300020E42E0020E02E0020AF
:10355C0010B504460120FFF7B3FF88B14FF4007398
:10356C000021084A013B9BB202F8011B002BF9D148
:10357C000120054B054A1C60137843F001031370BE
:10358C0010BD00BFE42E002008000020E02E00201B
:10359C00C36870B501338B4205460C46164601D202
:1035AC00002070BD90F82020C369102A0CBF080AB7
:1035BC00C80918440D4B1B6883420AD195F820307A
:1035CC00102B0B4B0BD1E4B233F8143001203360C9
:1035DC00E7E70021FFF798FF0028EFD1E0E704F0C0
:1035EC007F0453F8243023F07043EFE708000020E9
:1035FC00E42E00202DE9F3410446154600264FF435
:10360C0000780D4F01912046019901AAFFF7C0FFE8
:10361C0078B1237C94F8202008FA03F31E444FF66B
:10362C00F873102A18BF3B46019A9A42EBD301203B
:10363C002E6002B0BDE8F081F8FFFF0F0129F8B54C
:10364C0005460C46174601D80020F8BDC368013367
:10365C008B42F9D390F82030C669102B0CBF0B0AA3
:10366C00CB091E44124B1B689E4215D195F8203095
:10367C00102B104B17D1E4B223F814700E4A012012
:10368C00137843F0010313702B7E012B81BFAB68C1
:10369C00F6180A4B1E60D8E700213046FFF734FFBE
:1036AC000028E3D1D0E704F07F0443F82470E5E769
:1036BC0008000020E42E0020E02E0020E430002042
:1036CC002DE9F74F14680646894690463CB300270F
:1036DC00013425464FF0000AF36803F1010BF3683F
:1036EC00534517D95D4588BF02253046294601AAA6
:1036FC0088BF2C46FFF74CFF60B1019A6B1C9AB93E
:10370C001A1B4A4511D16FF0704229463046FFF71B
:10371C0095FF70B90027384603B0BDE8F08F4B1EFB
:10372C005F4204685F41D4E71C461D460AF1010A5A
:10373C00D5E7AC420AD205F1FF392A464946304654
:10374C00FFF77CFF0028E5D04D46F2E7D8F80010D3
:10375C0021B9C8F8004047B90127DCE722463046BA
:10376C00FFF76CFF0028F4D1D4E701343460D2E7C2
:10377C00022373B505460C460E4E036021462846BF
:10378C0001AAFFF705FF90B1002221462846FFF75A
:10379C0055FF60B14FF6F87395F82020019C102A64
:1037AC0018BF33469C42E9D3012002B070BD002003
:1037BC00FBE700BFF8FFFF0FF8B53A4B0546144680
:1037CC001960DAB1042A01D90020F8BD002108469D
:1037DC00FFF79AFE0028F7D0334A02EB041393F854
:1037EC00AE315B06F0D11B3402EB0414D4F80A3072
:1037FC00632BE9D9D4F80640002CE5D000212046F3
:10380C00FFF782FE0028DFD0274BB3F80B20B2F570
:10381C00007FD9D1197C0029D6D0DA89002AD3D0DF
:10382C005A7B002AD0D02976002101262A712974CE
:10383C00287C06FA00F18A4204D0411C072829741E
:10384C00F6D9C1E7D98A01B9596ADA89A960171979
:10385C00EF61B3F8112096B26A841A7C01FB0272F4
:10386C00710101F2FF116A6202EB51226A61B3F835
:10387C00131001B9196AA41A40F6F4720C44C4402E
:10388C009442EC6004D80C23012085F820309CE78E
:10389C004FF6F472944289BFDB6A10236B622023CB
:1038AC00F2E700BFE8300020E42E002013460A4661
:1038BC002321FEF7AFBB000010B50446C08803F00F
:1038CC00FBFB074A074B1168074A5868B1FBF2F239
:1038DC00216A51435A68121A9142FBDC10BD00BF99
:1038EC0030000020001000E040420F0003468088AA
:1038FC00DB88834201D003F0DFBB7047F0B50026B4
:10390C00044689B0076802AD0096334681680122EF
:10391C002846FEF721FF95E8070005AB83E8070072
:10392C00079A384600920CCB2321FEF71BFB31463D
:10393C002046FFF7C1FF09B0F0BD10B504460121C8
:10394C00FFF7BAFF20682321BDE81040FEF742BB09
:10395C0070B504460E461546FFF7D0FF46F0200121
:10396C0001222068FFF7A2FF01222073294620685C
:10397C00FFF79CFF2046FFF7E0FF70BD38B504460B
:10398C000D46FFF7BBFF294601222068FFF78EFF8B
:10399C000122FF2120732068FFF788FF054620468F
:1039AC00FFF7CBFF284638BDF8B504460F46154641
:1039BC001E46FFF7A3FF0122206847F02001FFF706
:1039CC0075FF2E442073B54206D0012215F8011B59
:1039DC002068FFF76BFFF6E72046FFF7AEFFF8BD58
:1039EC0038B504460D4663B1FFF788FF0122206805
:1039FC0045F02001FFF75AFF20732046FFF79DFF8B
:103A0C0038BDBDE83840FFF7A3BF2DE9F04198461B
:103A1C00037E06460F461546C3B9447BA24228BF17
:103A2C002546641BE4B23046FFF768FF012241468D
:103A3C003068FFF73BFF3D443073AF420DD001229D
:103A4C0017F8011B3068FFF731FFF6E7B2FA82F482
:103A5C00202A28BF20256409E5E7013CE4B2FF2CAD
:103A6C0005D0012200213068FFF720FFF5E7304632
:103A7C00FFF763FFBDE8F08110B504460123FF2278
:103A8C00E221FFF7ADFF207B10BD10B504460123EA
:103A9C00FF22E121FFF7A4FF207B10BDFF2210B510
:103AAC00044601231146FFF79BFF207B10BD00004D
:103ABC00054B826803600023837348F6B8039A426F
:103ACC009CBF024B83607047D02D002080969800DD
:103ADC008360202343730023C28083820122052349
:103AEC0010B58180C37502760362FFF7E1FF10BD4C
:103AFC007D290A4628BF7D220521FFF729BF2029F1
:103B0C0028BF2021012938BF012138B505461124D1
:103B1C0041732146013428466A7BE4B2FFF718FF53
:103B2C00172CF6D138BD4FF6FF7382889A4204D019
:103B3C00C088C01A18BF012070470020704738B5E4
:103B4C000446FFF7F0FF054690B1A088E388834256
:103B5C0006D0012103F062FA0121E08803F05EFA3D
:103B6C0000212046FFF7C2FE01212046FFF7A4FEEC
:103B7C00284638BD08B5C27C12F0020112D142F0C1
:103B8C000202C274FFF7E4FE074A084B1168084AA8
:103B9C005868B1FBF2F241F2883151435A68121A5B
:103BAC009142FBDC08BD00BF30000020001000E09B
:103BBC0040420F0038B5002B9DF8105014BFB023B5
:103BCC00A0230446FFF721FF2DB12046BDE8384065
:103BDC000121FFF78BBE38BD73B501240094054657
:103BEC00FFF7E8FF03F08CFA06462846FFF756FF6E
:103BFC0010F0300409D103F083FA831B5F2BF4D946
:103C0C0001236B76002002B070BD00212846FFF71F
:103C1C006DFE702207212846FFF79AFE2B7BDB06F0
:103C2C0003D52846FFF731FFECE70120EBE7002333
:103C3C00FFF7D2BF13B50446CDE900230A216A462B
:103C4C00C37DFFF7B1FE6A4610212046E37DFFF7E6
:103C5C00ABFE02B010BD8A1E12F0FF0238B505464D
:103C6C0008D002F00304224603210234FFF770FE51
:103C7C00EC7538BD0321FFF76BFE0223EB75F8E7FB
:103C8C0010B50446FFF73AFE012250212068FFF7D9
:103C9C000DFE0122207373212068FFF707FE2046DA
:103CAC00FFF74BFE10BD837D10B5044653B11D21AB
:103CBC00FFF764FE1D2100F0FD022046FFF748FED1
:103CCC000023A37510BD10B5044600220121FFF797
:103CDC003FFEA37D23B12046BDE81040FFF7E3BFB4
:103CEC0010BD19B13F220121FFF732BEFFF7EBBF28
:103CFC0070B50D46062106461446FFF73FFE032D10
:103D0C0028BF032500F0F80304EB45021A433046A4
:103D1C00BDE870400621D2B2FFF71ABE70B50E4650
:103D2C0006210446FFF72AFE022E00F0D70510D11B
:103D3C009B232022E36115432A4620460621FFF7E8
:103D4C0007FE06212046FFF719FE431B5842584137
:103D5C0070BD012E15BF552341230022082214BF2C
:103D6C00E361E361E7E70F2928BF0F210F2A28BF82
:103D7C000F2242EA0112D2B20421FFF7E9BD022A56
:103D8C000CD19B22C2612022032928BF032103EB03
:103D9C0041031A430621D2B2FFF7DABD012A15BF3F
:103DAC0055224122C261C26114BF00220822EBE7F6
:103DBC0038B50446052003F0A7F95F2204212046FC
:103DCC00FFF7C6FD0123002203212046FFF7D7FF92
:103DDC001D212046FFF7D2FD05462046FFF750FF78
:103DEC001D212046FFF7CAFD2A1A53425341237561
:103DFC0048B1854202D12046FFF742FF00221D2127
:103E0C002046FFF7A5FD002520462A461C21A57556
:103E1C00FFF79EFD20463F2201212576FFF798FDF6
:103E2C00032220460221FFF793FD20462021FFF7B5
:103E3C0066FE20460521FFF70EFF20464C21FFF7BA
:103E4C0057FE702207212046FFF782FD2046FFF720
:103E5C0013FE2046FFF719FE0C2229462046FFF7D9
:103E6C0077FD29462046FFF789FDE0742046FFF7D1
:103E7C0081FEE07CA0F10E035842584138BD10B5CC
:103E8C00044623210068FEF745F82046FFF757FE4D
:103E9C0020B12046BDE81040FFF78ABF10BD90F856
:103EAC006A2090F869309A420DD090F86A30034439
:103EBC0093F8292090F86A30013303F03F0380F81F
:103ECC006A30104670474FF0FF30704790F86930F9
:103EDC0090F86A2003F14000801A434203F03F033C
:103EEC0000F03F0058BF5842704772B6002380F86C
:103EFC00693080F86A3062B6704790F86A2090F8A2
:103F0C0069309A421DBF90F86A30C01890F82900A9
:103F1C004FF0FF30704703681847012A03D0022A7C
:103F2C0003D0002070470160FBE70B680360F8E7E3
:103F3C007FB51F4E0C4632688A4236D01D4803F0BE
:103F4C00EBF91C486CB103F06BFB01214FF6FE72D0
:103F5C0004EB4403B0FBF3F5954205D94008490046
:103F6C00F8E703F0C2FA1FE0124803F0BAFA002295
:103F7C002946104803F088FB00220E48114603F036
:103F8C00A5FB0D4B694600930C4B0A4803930C4B55
:103F9C00029303F007FC029B1BB1694603220846FF
:103FAC009847044803F07CFA346004B070BD00BF3D
:103FBC00AC31002000310020CD420008233F000826
:103FCC00273F000890F82810D0E907238907C3F38E
:103FDC000F234FF00101408A4CBF5361136103F072
:103FEC001DB890F82830008A13F0020F14BF03217B
:103FFC00022103F013B8000090F8283070B55B076D
:10400C0004460E460ED50B4D2B6861B1984209D073
:10401C00FFF7E7FF4FF0FF32074B1A600222074B06
:10402C001A602C6070BD8342FCD1FFF7CBFF2E6071
:10403C00F8E700BFA83100200C000020F43000206D
:10404C0038B50D4D04462A68824213D10B4B1968C2
:10405C000029FCD194F828305B0702D52046FFF7E5
:10406C00CBFF0021064B204629601960FFF760FF4B
:10407C00012038BD0020FCE7FC300020EC30002093
:10408C00A831002010B50446024B0360FFF7D8FF9F
:10409C00204610BD8C9C000810B50446FFF7F2FFBB
:1040AC002046702103F053FE204610BD70B5044627
:1040BC000F4E3068A04219D00E4A1368002BFCD169
:1040CC000125FFF7BDFF4FF0FF320B4B20461D6063
:1040DC000A4B616A1A60FFF72BFF94F828303460A2
:1040EC005B0701D4064B1C60284600E0002070BD25
:1040FC00FC300020EC300020F43000200C000020BC
:10410C00A831002070B590F82830044643F008031D
:10411C0080F82830164B1E461A68002AFCD194F8F9
:10412C002820144B4900920741F40071196048BFD4
:10413C00C9434FF000054FF0030248BF19600E4B06
:10414C0020461D600D4B616A1A60FFF7F1FE94F872
:10415C0028305B0703D529462046FFF74DFF94F81E
:10416C00283001206FF3C30384F82830346070BD0D
:10417C00EC300020B4310020F0300020F83000206A
:10418C00194A70B5116803460139002916461160A9
:10419C0013DC164D29684C1C09292C600EDCD3E964
:1041AC000703134AC3F30F231168CC074CBF0361F9
:1041BC004361032349081160336070BD0121116014
:1041CC0090F82820150703D500220A4B1A60F4E753
:1041DC00192CF2DD5207F7D5074A12688242F3D147
:1041EC00FFF70AFFF0E700BFF8300020F0300020A6
:1041FC00B4310020EC300020FC3000202D4AF0B50A
:10420C0013681446013B002B136020DC4369816961
:10421C009B68DFF8A8C0DB4303EA11239BB2B3FA17
:10422C0083F3DCF8001090F828504E1C4FEA53131F
:10423C006646C5F340070BD19F4205BF04210023FE
:10424C000123116004BF1C4ACCF800301360F0BD90
:10425C0007291EDD9F4216D090F8693090F86A202D
:10426C00013303F03F039A421FBF134990F86920B2
:10427C00096812180BBF45F0010582F8291080F867
:10428C00285080F86930012323604FF0FF333360EE
:10429C00DDE79F424FF00303074801F1010102687B
:1042AC00CCF800104FEA520218BF42F080020260B4
:1042BC002360CCE7F4300020B03100200C0000204B
:1042CC0008B5064B1A6812B11868FFF797FF044B34
:1042DC001A6812B11868FFF753FF08BDA831002007
:1042EC00EC30002070B504460D464FF47A70002176
:1042FC00C4E901103A48222D20602582628209D837
:10430C00384830F91500C0F3031004289CBF364917
:10431C0051F82010222D88BF0F2061619CBF3149BC
:10432C0031F81500314998BF00F00F0051F820000A
:10433C00222AA0613AD82B4830F91200C0F303109E
:10434C00042833D8284E56F82000222AE0618CBF6E
:10435C000F202448A5EB020698BF30F812004FEA54
:10436C00430398BF00F00F0051F8201070422162F7
:10437C004FF00001704143EA800394F8280003F0E9
:10438C000F0320F00F000343222D84F869106162A3
:10439C0084F8283084F86A10E16609D9222A09D9F0
:1043AC004FF0FF31124802F09FF914E00020CCE7E7
:1043BC00222A12D80B4B33F91200C0F3031001F070
:1043CC0081FE222D97BF074B0F2033F91500C0F348
:1043DC00031001F077FE204670BD0F20EFE700BF01
:1043EC008C9C0008C8A000081C000020489D0008F8
:1043FC00689C000810B590F8283004465B074162B1
:10440C0009D4FFF7DFFD2046FFF7EBFD2046BDE8A2
:10441C001040FFF74BBEFFF7D5FD10BD0149024818
:10442C0003F0A8B80008004000310020014803F058
:10443C0081B800BF0031002070B5174C0021054633
:10444C00807A02F039FE2368144A154EB3FBF2F25F
:10445C00716873685B1A9A42FBDC0121A87A02F03E
:10446C002BFE23680D4A7168B3FBF2F20C4E736895
:10447C005B1A9A42FBDC0021A87A02F01DFE22682E
:10448C00064B7168B2FBF3F364225A430448436849
:10449C005B1A9A42FBDC70BD3000002040420F00DA
:1044AC00001000E0F8B504460E46002500F10B079D
:1044BC0046FA05F117F8010B01F00101013502F084
:1044CC00FBFD042DF4D12046BDE8F840FFF7B4BF46
:1044DC00F8B504460E46002500F10B0746FA05F127
:1044EC0017F8010B01F00101013502F0E5FD082D73
:1044FC00F4D12046BDE8F840FFF79EBF38B504461E
:10450C000D46007A114602F0D7FD607AFF2802D0E2
:10451C00002102F0D1FDE37CDB0605D529462046BF
:10452C00BDE83840FFF7D4BF20462909FFF7BAFF92
:10453C0029462046BDE83840FFF7B4BF08B5012234
:10454C00FFF7DCFF012008BD0022FFF7D7BF0000FA
:10455C00012108B5FFF7F8FF074A084B1168084A14
:10456C005868B1FBF2F24FF4FA6151435A68121ACF
:10457C009142FBDC08BD00BF30000020001000E0C1
:10458C0040420F00032A28BF032208B5C37D934283
:10459C009CBF03F1FF32D2B20244137E194461F086
:1045AC007F01C9B2FFF7D0FF08BD08B5017D41F00E
:1045BC000402027541F00C01FFF7C6FF08BD0000B4
:1045CC0070B50446012A88BFC07CA17684BF40F038
:1045DC000800E0744FF480404031E2752083E176AE
:1045EC002BB1012A02BFE37C43F00403E374207A6D
:1045FC00012102F013FD607AFF2802D0012102F0A4
:10460C000DFD01216FF00A06A07A02F007FD04F1FE
:10461C000B05361BE37C13F0100F14BF0822042289
:10462C0073199A4205DD012115F8010B02F0F6FC15
:10463C00F0E74A4E4A4A31684A4BB1FBF2F24CF26F
:10464C005031514358685A68121A9142FBDC0021D0
:10465C00207A02F031FDA07A002102F02DFD607A63
:10466C00FF2802D0002102F027FDE17C3D4D11F026
:10467C00100F49D103212046FFF714FF3268384B45
:10468C006968B2FBF3F341F294125A436B685B1AFC
:10469C009A42FBDC03212046FFF704FF3268304BC3
:1046AC006968B2FBF3F341F294125A432D4D6B68D7
:1046BC005B1A9A42FBDC03212046FFF7F3FE3268BB
:1046CC00274B6968B2FBF3F396225A43254843689B
:1046DC005B1A9A42FBDC02212046FFF7E3FEE17CE9
:1046EC00204641F02001FFF72FFF042320462375BD
:1046FC00FFF75BFF2046FFF72BFF02230621204626
:10470C006375FFF721FF70BD41F020012046FFF7D4
:10471C001BFF3268124B6968B2FBF3F341F294123F
:10472C005A436B685B1A9A42FBDCE17C204641F0F1
:10473C002001FFF709FF3268094B6968B2FBF3F3FC
:10474C0096225A43074843685B1A9A42FBDCE17C89
:10475C00204641F02001FFF7F7FEC0E730000020B3
:10476C0040420F00001000E070B51D46017200239E
:10477C00FF21044682729DF810200A4E02739DF8A8
:10478C001420436042739DF8182006604172C57274
:10479C008273C373036101221021FFF711FF2046BE
:1047AC0070BD00BFBC9C000803460A4910B50868E0
:1047BC000344EFF30882934205D90C224FF0FF30EB
:1047CC00054B1A6010BD054A054C121B9342F4D2DE
:1047DC000B60F7E710000020783800200050002014
:1047EC0000040000FEE700001622024B4FF0FF30E1
:1047FC001A6070477838002001207047704700001D
:10480C0038B50E4B054618784FF47A73B3FBF0F3BA
:10481C000B4A1068B0FBF3F000F0DCFB044658B90F
:10482C000F2D09D8024629464FF0FF3000F07EFBD1
:10483C002046044B1D6038BD0120FCE7140000200D
:10484C003000002018000020074A08B51368032028
:10485C0043F01003136000F057FB0020FFF7D0FF6C
:10486C00FFF7CCFF002008BD00200240034A044B98
:10487C0011681B780B441360704700BF5038002040
:10488C0014000020014B1868704700BF50380020FE
:10489C00F7B5002604460D460196FFF7F3FF236893
:1048AC0007469A68D20508D50120A36A84F82460CB
:1048BC0043F02003A36203B0F0BD5A68D60503D4BD
:1048CC00DB6A13F4700F3AD0394B02201E6801F0EA
:1048DC0057F82368374A1969B6FBF0F61142364A85
:1048EC004DD1D8683549084249D11969114257D17F
:1048FC00DA68334B1A4214BF292314235E43019BFD
:10490C00B34220D26A1C05D085B1FFF7BBFFC01B98
:10491C00A8420BD8019B01330193F0E7681C0FD020
:10492C0025B1FFF7AFFFC01BA84208D9A36A03202B
:10493C0043F00403A362002384F82430BBE722680D
:10494C0013689907EAD56FF0120322681360A36A03
:10495C0043F40073A362936803F46023B3F5602FF0
:10496C0024D1207B10BBA36A23F48073A362A36AB7
:10497C00DB041BD4A36A43F00103A3629BE7196910
:10498C00114203D1D9680E4A11420BD019690D4A54
:10499C00114209D1DB68134214BFFC235423ADE749
:1049AC002923ABE75423A9E7FC23A7E7002082E7E0
:1049BC003000002024499224922449122449920068
:1049CC0092244900499224000368D86C7047000077
:1049DC00002373B5019390F824300446012B6CD05E
:1049EC00012380F824304D680268062D086805EB19
:1049FC00850322D81F26556B053B9E4025EA0605EC
:104A0C0000FA03F32B43536309288B6800EB400532
:104A1C004FF0070129D9D6681E3DA94026EA0101AD
:104A2C00AB400B43D360A0F11003012B25D9002020
:104A3C00002384F8243002B070BD0C2D4FF01F05FC
:104A4C0009D8166B233B9D4026EA050500FA03F3B3
:104A5C002B431363D8E7D66A413B9D4026EA0505F4
:104A6C0000FA03F32B43D362CEE71069A94020EA86
:104A7C000101AB400B431361D9E7114B9A4216D19C
:104A8C0093681B02D3D49368102843F400039360FB
:104A9C00CDD10C4B0C4A1B68B3FBF2F20A235343E7
:104AAC000193019B002BC2D0019B013BF8E7A36A49
:104ABC00012043F02003A362BAE70220BBE700BF4A
:104ACC00002401403000002040420F00806A7047F3
:104ADC00002373B50193036804469A68D20702D584
:104AEC00002002B070BD9A6842F001029A60124B2D
:104AFC00124A1B68B3FBF2F30193019BC3B9FFF796
:104B0C00C1FE064623689D6815F00105E8D1FFF744
:104B1C00B9FE801B0228F5D9A36A012043F01003CB
:104B2C00A362E36A84F8245043F00103E362D8E7FC
:104B3C00019B013BE0E700BF3000002040420F002A
:104B4C0010B590F824300446012B54D0012380F882
:104B5C002430FFF7BDFF002849D1A36A274A23F46C
:104B6C00407323F0010343F48073A36223689342E0
:104B7C0004D123494A6812F4702F2ED1A26A22F470
:104B8C008012A2625A68520541BFA26A22F44052B6
:104B9C0042F48052A262A26A12F480521CBFE26AF2
:104BAC0022F00602E262002284F824206FF0020256
:104BBC001A609A6802F46022B2F5602F13D10F4A82
:104BCC00934205D1A2F58062526812F4702F0AD17B
:104BDC009A6842F4A0029A6010BDA26A42F4801254
:104BEC00A2624A68CFE79A6842F48012F3E7002386
:104BFC0084F82430F0E70220EEE700BF00280140E3
:104C0C000024014038B5036804469A68D20701D4E1
:104C1C00002038BD9A6822F001029A60FFF732FE3C
:104C2C00054623689B68DB07F2D5FFF72BFE401B7C
:104C3C000228F6D9A36A012043F01003A362E36AA9
:104C4C0043F00103E362E4E7F8B5044600286ED0B4
:104C5C00836A23B9C36280F8243001F09FFF204699
:104C6C00FFF7D0FFA36A13F0100362D1002860D1C4
:104C7C00A26AE569616822F4885222F0020242F0CD
:104C8C0002022943A568A262227BB5F5807F41EA26
:104C9C00420137D0012D14BF00274FF48077267DB9
:104CAC00012E06D182BBA269013A47EA423646F48C
:104CBC0000672268B5F5807F566826F4694646EA97
:104CCC000706566097681D4E06EA070646EA010677
:104CDC00966001D0012D02D12369013B1B05D56AD9
:104CEC0025F470052B43D3629268154B13409942FF
:104CFC0013D10023E362A36A23F0030343F00103FF
:104D0C00A362F8BD2F46CAE7A26A42F02002A26253
:104D1C00E26A42F00102E262CBE7A36A23F01203DB
:104D2C0043F01003A362E36A43F00103E362012042
:104D3C00E7E7A36A43F01003A362F8E7FDF7E1FF8E
:104D4C00FE0E1FFF38B50446002850D0836A43F08E
:104D5C0002038362FFF756FF0546002842D16FF02D
:104D6C001F02236823481A605968234A0A405A6074
:104D7C009968224A0A409A60DA6802F07F42DA6047
:104D8C001A6902F040421A6159691D4A1140596171
:104D9C00996911409961D9691140D961196A114019
:104DAC001962596A11405962996A0A409A62DA6A20
:104DBC0002F07F42DA62DA6A02F07F42DA621A6B40
:104DCC0002F040421A635A6B02F040425A63996BEC
:104DDC00014099639A6B02409A63204601F010FFE0
:104DEC00E562A562002384F82430284638BD0125ED
:104DFC00FBE700BF0000C0FF00003FFFF00601FF13
:104E0C0000F0FFFF10B590F824300446012B11D0B0
:104E1C00012380F82430FFF7F5FE38B9A36A23F498
:104E2C00885323F0010343F00103A362002384F8A9
:104E3C00243010BD0220FCE7002373B5019390F8D9
:104E4C0024300446012B5AD0012380F82430FFF77C
:104E5C00D9FE0546002832D1A36A022023F48853D8
:104E6C0023F0020343F00203A362264B1E6800F0FA
:104E7C0087FDB6FBF0F676000196019B1BBB204626
:104E8C00FFF726FE2268936843F008039360FFF750
:104E9C00F9FC064623689A68120718D49A6842F0FF
:104EAC0004029A60FFF7EEFC064623689B685B07DA
:104EBC001FD4A36A23F0030343F00103A36200236E
:104ECC0084F8243012E0019B013B0193D5E7FFF7F6
:104EDC00D9FC801B0A28DDD9A36A012523F0120313
:104EEC0043F01003A362002384F82430284602B058
:104EFC0070BDFFF7C7FC801B0A28D6D9ECE702254A
:104F0C00F4E700BF3000002007490302CA6803F42D
:104F1C00E06322F4E0621204120C134343F0BF630B
:104F2C0043F40033CB60704700ED00E0164B30B516
:104F3C00DC68C4F30224C4F10703251D042B28BF2D
:104F4C000423062D4FF0FF3598BF002405FA03F318
:104F5C0088BF033C21EA0303A34005FA04F422EAC8
:104F6C000402002843EA0203ACBF00F16040074A88
:104F7C004FEA0313DBB2ABBF00F5614000F00F004A
:104F8C0080F80033135430BD00ED00E014ED00E068
:104F9C00002808DB0123420900F01F0003FA00F08F
:104FAC00014B43F82200704700E100E000280DDBC4
:104FBC000122430900F01F0002FA00F0044A2033DA
:104FCC0042F82300BFF34F8FBFF36F8F704700BFC2
:104FDC0000E100E00138B0F1807F0AD2F021064BED
:104FEC00064A586082F823100020072298601A6045
:104FFC0070470120704700BF10E000E000ED00E0BA
:10500C00002809DB0122430900F01F0002FA00F01E
:10501C00024A603342F82300704700BF00E100E011
:10502C00704708B5FFF7FCFF08BD000008B590F805
:10503C002130022B03D004238363012008BD0368B5
:10504C001A6822F00E021A601A6822F001021A6025
:10505C00174A93421CD0143293421BD01432934201
:10506C001AD0143293421AD0143293421AD01432FA
:10507C0093420CBF4FF480134FF080730D4A536072
:10508C004FF480730384436B7BB198470020D5E7C2
:10509C000123F3E71023F1E74FF48073EEE74FF4AD
:1050AC008053EBE74FF48033E8E71846C6E700BFC0
:1050BC000800024000000240114AD36813F01003AC
:1050CC0005D01049CB6943F00203CB611023D268A1
:1050DC00500706D50B4943F00403CA6942F001029C
:1050EC00CA61074AD169C90708D50648C16941F0A8
:1050FC000401C161D16921F00101D161D360704714
:10510C000020024058380020064B186910F080002F
:10511C0007D0054A5A6002F188325A601869C0F308
:10512C00C01070470020024023016745034A00204D
:10513C00136943F080031361704700BF00200240E5
:10514C00F8B50446FFF79EFB114D07462E46EB685B
:10515C00D80712D4EB68990644BF2023EB60F368A0
:10516C00DA0606D4F369DB0703D4F06810F0040008
:10517C0007D0FFF7A1FF012003E0631CE7D00CB9B7
:10518C000320F8BDFFF77EFBC01BA042DFD9F7E779
:10519C00002002402DE9F84F254E1F46337E054670
:1051AC00012B8846914640D001234CF25030337687
:1051BC00FFF7C6FFA8BB012D03D0022D0CBF0225A3
:1051CC0004254FF0000A5346DFF868B04FEA0A1482
:1051DC00C4F12001A4F1200207FA01F129FA04F428
:1051EC00F3610C4327FA02F21443DBF81020A4B24B
:1051FC0042F00102CBF810204CF2503028F81A4043
:10520C00FFF79EFFDBF8102022F00102CBF81020F4
:10521C0038B90AF1010A5FFA8AF295424FF000039D
:10522C00D4D800233376BDE8F88F0220FBE700BF0B
:10523C0058380020002002400022064BDA61064B51
:10524C001A6942F004021A611A6942F040021A61AA
:10525C00704700BF58380020002002400022064B47
:10526C00DA61064B1A6942F002021A6158611A6936
:10527C0042F040021A61704758380020002002406A
:10528C002DE9F041224E0546337E8846012B3DD058
:10529C000124347603684CF25030022B13D1FFF703
:1052AC004FFF20B1012000233376BDE8F081FFF7DA
:1052BC00C3FF4CF25030FFF743FF164A136923F03B
:1052CC0004031361EFE7FFF73BFF0028EAD14FF02F
:1052DC00FF33C8F800302046AF680E4CD5E90232D7
:1052EC0003EB8223BB42DED93846FFF7B7FF4CF203
:1052FC005030FFF725FF236923F00203236110B11F
:10530C00C8F80070CFE707F58067E7E70220CCE725
:10531C005838002000200240044A08B55169014267
:10532C0002D0506101F05EFD08BD00BF00040140D9
:10533C002DE9F341054638B30368DB0710D42B681D
:10534C009F075ED42B68190700F195802B685A07CC
:10535C0000F1BF80E869002840F02C81002029E092
:10536C008F4C636803F00C03042B07D0636803F0C5
:10537C000C03082B0AD16368DE0307D523689C0352
:10538C00DDD56B68002BDAD1012013E06B68B3F527
:10539C00803F12D1236843F480332360FFF772FA05
:1053AC00064623689803CAD4FFF76CFA801B64285E
:1053BC00F7D9032002B0BDE8F0819BB9236823F430
:1053CC0080332360236823F480232360FFF75AFA89
:1053DC00064623689903B2D5FFF754FA801B64285C
:1053EC00F7D9E6E7B3F5A02F236803D143F4802364
:1053FC002360CFE723F480332360236823F48023D6
:10540C00CBE7674C636813F00C0F07D0636803F0AD
:10541C000C03082B10D16368DA030DD423689B07A7
:10542C0002D52B69012BAFD123686A6923F0F803ED
:10543C0043EAC203236085E72A695A4B6AB1012209
:10544C001A60FFF71FFA064623689F07ECD4FFF794
:10545C0019FA801B0228F7D9ABE71A60FFF712FA8A
:10546C000646236898077FF56DAFFFF70BFA801B94
:10547C000228F6D99DE7AA69494E4B4BDAB10122B5
:10548C001A60FFF7FFF90446736A9B070DD54FF4BA
:10549C00FA52464B1B68B3FBF2F3019300BF019B1E
:1054AC005A1E0192002BF9D150E7FFF7EBF9001BC4
:1054BC000228E9D97DE71A60FFF7E4F90446736A1C
:1054CC009F077FF543AFFFF7DDF9001B0228F6D9E4
:1054DC006FE7334CE369D80024D40127E36943F028
:1054EC008053E361E36903F080530093009B304EDB
:1054FC003368D90518D5EB68012B26D1236A43F004
:10550C0001032362FFF7BEF941F288380646236A8D
:10551C009B073FD5002F3FF41DAFE36923F0805369
:10552C00E36117E70027E2E7336843F480733360E5
:10553C00FFF7A8F980463368DA05DCD4FFF7A2F947
:10554C00A0EB08006428F6D933E7ABB9236A41F223
:10555C00883823F001032362236A23F004032362B7
:10556C00FFF790F90646236A9807D3D5FFF78AF917
:10557C00801B4045F7D91CE7052B236A03D143F068
:10558C0004032362BAE723F001032362236A23F0A6
:10559C000403B6E7FFF776F9801B4045B7D908E757
:1055AC0000100240000042428004424230000020C1
:1055BC00007000402A4B5A681C4602F00C02082A64
:1055CC003DD00023274E022833602BD1FFF75AF928
:1055DC000746236899011FD42B6AB3F5803F05D188
:1055EC006268A96822F400320A436260696A6268E0
:1055FC000B4322F474121343636001233360FFF7EF
:10560C0041F9054623689A013FF5A8AEFFF73AF930
:10561C00401B0228F6D9CCE6FFF734F9C01B022850
:10562C00D7D9C6E6FFF72EF9054623689B017FF50F
:10563C0095AEFFF727F9401B0228F6D9B9E60128E9
:10564C003FF4B8AE5B682A6A03F4803191427FF470
:10565C009BAE6A6A03F4701393423FF47FAE93E6F9
:10566C00001002406000424230B5184B87B002ACCB
:10567C0003F11005224618685968083303C2AB427F
:10568C001446F7D140F201231149ADF804304B68B0
:10569C0003F00C02082A17D1C3F3834206A8024474
:1056AC00DB0312F8102C0CD54B680A48C3F34043AB
:1056BC00504306AA134413F8143CB0FBF3F007B0A4
:1056CC0030BD05485043FAE70248F8E7C49C00088F
:1056DC000010024000127A0000093D002DE9F04153
:1056EC000D46044610B90120BDE8F081444A136808
:1056FC0003F007038B4228D321688E0730D4CA07E6
:10570C0043D43F4A136803F00703AB4265D82268C1
:10571C003C4D12F0040F6CD1130706D56B6822694F
:10572C0023F4605343EAC2036B60FFF79DFF6B6881
:10573C00354AC3F30313D35CD840344B1860344B55
:10574C001868FFF75DF80020CEE7136823F0070315
:10575C000B431360136803F007038B42C3D1CBE7F1
:10576C00284B11F0040F1EBF5A6842F4E0625A60D5
:10577C00080742BF5A6842F460525A605A68A068DF
:10578C0022F0F00202435A60B9E762681D4E012A0A
:10579C0033681AD113F4003FA5D0736841F28838EE
:1057AC0023F0030313437360FFF76CF80746736829
:1057BC00626803F00C03B3EB820FA2D0FFF762F820
:1057CC00C01B4045F3D903208EE7022A02D113F007
:1057DC00007FE1E713F0020FDEE7136823F0070305
:1057EC002B431360136803F00703AB427FF47BAFCA
:1057FC008DE76B68E16823F4E0630B436B608BE728
:10580C000020024000100240889D0008300000205B
:10581C0018000020044B054A5B68C3F30223D35CD9
:10582C00034A1068D840704700100240989D000849
:10583C0030000020044B054A5B68C3F3C223D35CE1
:10584C00034A1068D840704700100240989D000829
:10585C00300000200F2303600B4B5A6802F0030248
:10586C0042605A6802F0F00282605A6802F4E06208
:10587C00C2605B68DB0803F4E0630361034B1B68E5
:10588C0003F007030B607047001002400020024039
:10589C0003682DE9F341D907054620D5354CE3695A
:1058AC00DA0032D40127E36943F08053E361E36902
:1058BC0003F080530193019B2F4E3368DB0526D5F3
:1058CC00236A13F4407336D1236A6A6823F4407355
:1058DC00134323621FB1E36923F08053E36128680B
:1058EC00830706D52349AB684A6822F440421A4321
:1058FC004A6010F010001BD01E4AE9685368002063
:10590C0023F480030B43536012E00027D4E7336881
:10591C0043F480733360FEF7B5FF80463368D805D7
:10592C00CED4FEF7AFFFA0EB08006428F6D9032015
:10593C0002B0BDE8F0816A6802F440729A42C3D0AA
:10594C0001200E4A236A1060002023F4407110607D
:10595C002162D907B8D5FEF795FF41F28838064683
:10596C00236A9A07B0D4FEF78DFF801B4045F7D908
:10597C00DDE700BF001002400070004040044242CE
:10598C00024670B5344B86B002AD03F110062C46BE
:10599C0018685968083303C4B3422546F7D140F25E
:1059AC000123022AADF8043049D0102A03D0012A71
:1059BC0026D0002038E0294B5968186810F0807008
:1059CC0032D0C1F3834206A8024412F8100CCA0369
:1059DC0041BF5A6806A9C2F34042521844BF12F89C
:1059EC00141C1F4A5B684CBFB2FBF1F21D4A5B02F0
:1059FC0002FB00F018D403234000B0FBF3F013E0DB
:105A0C0040F20231154A136A1940B1F5817F1FD05B
:105A1C0003F44073B3F5007F08D149F64043506A54
:105A2C0010F0020018BF184606B070BDB3F5407FE9
:105A3C00BFD110684FF2244310F40030F2E7FFF7A7
:105A4C00F9FE064B5B68C3F3813301335B00D4E78B
:105A5C004FF40040E8E700BFC49C0008001002406F
:105A6C0000127A0000093D00036810B51A6804465C
:105A7C00920708D55B689B0705D500F023FE6FF0F5
:105A8C00020223685A604FF40032024B5A61012320
:105A9C00637410BD00040140704710B50446002823
:105AAC0034D00023836290F8513003F0FF021BB90D
:105ABC0080F85020FFF7F0FF0223226884F8513061
:105ACC001368A16923F040031360D4E90130034348
